{
  "contractName": "Record",
  "abi": [
    {
      "inputs": [],
      "payable": false,
      "stateMutability": "nonpayable",
      "type": "constructor",
      "signature": "constructor"
    },
    {
      "anonymous": false,
      "inputs": [
        {
          "indexed": false,
          "name": "recordHash",
          "type": "string"
        }
      ],
      "name": "RecordAdded",
      "type": "event",
      "signature": "0x3207f2f793a2447f3db3a0ef5e003bf526a9ff5a0d2d0e456f8de3a935125e0d"
    },
    {
      "constant": false,
      "inputs": [
        {
          "name": "_recordHash",
          "type": "string"
        },
        {
          "name": "_area",
          "type": "string"
        }
      ],
      "name": "set",
      "outputs": [],
      "payable": false,
      "stateMutability": "nonpayable",
      "type": "function",
      "signature": "0xe942b516"
    },
    {
      "constant": true,
      "inputs": [
        {
          "name": "_area",
          "type": "string"
        }
      ],
      "name": "get",
      "outputs": [
        {
          "name": "",
          "type": "string[]"
        }
      ],
      "payable": false,
      "stateMutability": "view",
      "type": "function",
      "signature": "0x693ec85e"
    }
  ],
  "bytecode": "0x608060405234801561001057600080fd5b5033600160006101000a81548173ffffffffffffffffffffffffffffffffffffffff021916908373ffffffffffffffffffffffffffffffffffffffff1602179055506108ed806100616000396000f3fe60806040526004361061004c576000357c0100000000000000000000000000000000000000000000000000000000900463ffffffff168063693ec85e14610051578063e942b5161461008e575b600080fd5b34801561005d57600080fd5b50610078600480360361007391908101906105aa565b6100b7565b6040516100859190610768565b60405180910390f35b34801561009a57600080fd5b506100b560048036036100b091908101906105eb565b61020b565b005b60606000826040518082805190602001908083835b6020831015156100f157805182526020820191506020810190506020830392506100cc565b6001836020036101000a0380198251168184511680821785525050505050509050019150509081526020016040518091039020805480602002602001604051908101604052809291908181526020016000905b82821015610200578382906000526020600020018054600181600116156101000203166002900480601f0160208091040260200160405190810160405280929190818152602001828054600181600116156101000203166002900480156101ec5780601f106101c1576101008083540402835291602001916101ec565b820191906000526020600020905b8154815290600101906020018083116101cf57829003601f168201915b505050505081526020019060010190610144565b505050509050919050565b818160008090505b6000826040518082805190602001908083835b60208310151561024b5780518252602082019150602081019050602083039250610226565b6001836020036101000a0380198251168184511680821785525050505050509050019150509081526020016040518091039020805490508110156103c95782805190602001206000836040518082805190602001908083835b6020831015156102c957805182526020820191506020810190506020830392506102a4565b6001836020036101000a03801982511681845116808217855250505050505090500191505090815260200160405180910390208281548110151561030957fe5b90600052602060002001604051808280546001816001161561010002031660029004801561036e5780601f1061034c57610100808354040283529182019161036e565b820191906000526020600020905b81548152906001019060200180831161035a575b50509150506040518091039020141515156103be576040517f08c379a00000000000000000000000000000000000000000000000000000000081526004016103b5906107ac565b60405180910390fd5b806001019050610213565b506000836040518082805190602001908083835b60208310151561040257805182526020820191506020810190506020830392506103dd565b6001836020036101000a03801982511681845116808217855250505050505090500191505090815260200160405180910390208490806001815401808255809150509060018203906000526020600020016000909192909190915090805190602001906104709291906104af565b50507f3207f2f793a2447f3db3a0ef5e003bf526a9ff5a0d2d0e456f8de3a935125e0d846040516104a1919061078a565b60405180910390a150505050565b828054600181600116156101000203166002900490600052602060002090601f016020900481019282601f106104f057805160ff191683800117855561051e565b8280016001018555821561051e579182015b8281111561051d578251825591602001919060010190610502565b5b50905061052b919061052f565b5090565b61055191905b8082111561054d576000816000905550600101610535565b5090565b90565b600082601f830112151561056757600080fd5b813561057a610575826107f9565b6107cc565b9150808252602083016020830185838301111561059657600080fd5b6105a1838284610860565b50505092915050565b6000602082840312156105bc57600080fd5b600082013567ffffffffffffffff8111156105d657600080fd5b6105e284828501610554565b91505092915050565b600080604083850312156105fe57600080fd5b600083013567ffffffffffffffff81111561061857600080fd5b61062485828601610554565b925050602083013567ffffffffffffffff81111561064157600080fd5b61064d85828601610554565b9150509250929050565b600061066282610832565b8084526020840193508360208202850161067b85610825565b60005b848110156106b45783830388526106968383516106fb565b92506106a182610853565b915060208801975060018101905061067e565b508196508694505050505092915050565b60006106d082610848565b8084526106e481602086016020860161086f565b6106ed816108a2565b602085010191505092915050565b60006107068261083d565b80845261071a81602086016020860161086f565b610723816108a2565b602085010191505092915050565b6000601a82527f54686973207265636f726420616c7265616479206578697374730000000000006020830152604082019050919050565b600060208201905081810360008301526107828184610657565b905092915050565b600060208201905081810360008301526107a481846106c5565b905092915050565b600060208201905081810360008301526107c581610731565b9050919050565b6000604051905081810181811067ffffffffffffffff821117156107ef57600080fd5b8060405250919050565b600067ffffffffffffffff82111561081057600080fd5b601f19601f8301169050602081019050919050565b6000602082019050919050565b600081519050919050565b600081519050919050565b600081519050919050565b6000602082019050919050565b82818337600083830152505050565b60005b8381101561088d578082015181840152602081019050610872565b8381111561089c576000848401525b50505050565b6000601f19601f830116905091905056fea265627a7a72305820005207ee82d13aca468b2035050cee5e335686635d3263e9f8d763c86b2b7fca6c6578706572696d656e74616cf50037",
  "source": "pragma solidity 0.5.0;\npragma experimental ABIEncoderV2;\n\ncontract Record {\n  mapping (string => string[]) records;\n  address owner;\n\n  constructor() public{\n    owner = msg.sender;\n  }\n\n  event RecordAdded(\n    string recordHash\n  );\n\n  modifier uniqueRecord\n    (string memory _recordHash, string memory _area) {\n    for(uint i = 0; i<records[_area].length; ++i) {\n      require(\n        keccak256(bytes(records[_area][i])) != keccak256(bytes(_recordHash)),\n        \"This record already exists\"\n      );\n    }\n    _;\n  }\n\n  modifier onlyOfficial (address sender) {\n    require(\n      sender == owner,\n      \"Only officials may add records\"\n    );\n    _;\n  }\n\n  function set\n    (string memory _recordHash, string memory _area)\n    public\n    uniqueRecord(_recordHash, _area)\n\n  {\n    records[_area].push(_recordHash);\n    emit RecordAdded(_recordHash);\n  }\n\n  function get(string memory _area)\n    public\n    view\n    returns(string[] memory)\n  {\n    return records[_area];\n  }\n}",
  "sourcePath": "/home/guna_shekar02/Desktop/surakshit/src/contracts/Record.sol",
  "compiler": {
    "name": "solc",
    "version": "0.5.0+commit.1d4f565a.Emscripten.clang"
  },
  "schemaVersion": "3.0.2",
  "updatedAt": "2020-01-20T22:13:09.555Z",
  "devdoc": {
    "methods": {}
  },
  "userdoc": {
    "methods": {}
  }
}