{
  "contractName": "Record",
  "abi": [
    {
      "constant": false,
      "inputs": [
        {
          "name": "_recordHash",
          "type": "string"
        },
        {
          "name": "_area",
          "type": "string"
        }
      ],
      "name": "set",
      "outputs": [],
      "payable": false,
      "stateMutability": "nonpayable",
      "type": "function",
      "signature": "0xe942b516"
    },
    {
      "constant": true,
      "inputs": [
        {
          "name": "_area",
          "type": "string"
        }
      ],
      "name": "get",
      "outputs": [
        {
          "name": "",
          "type": "string[]"
        }
      ],
      "payable": false,
      "stateMutability": "view",
      "type": "function",
      "signature": "0x693ec85e"
    }
  ],
  "bytecode": "0x608060405234801561001057600080fd5b5061063b806100206000396000f3fe60806040526004361061004c576000357c0100000000000000000000000000000000000000000000000000000000900463ffffffff168063693ec85e14610051578063e942b5161461008e575b600080fd5b34801561005d57600080fd5b50610078600480360361007391908101906103b2565b6100b7565b6040516100859190610503565b60405180910390f35b34801561009a57600080fd5b506100b560048036036100b091908101906103f3565b61020b565b005b60606000826040518082805190602001908083835b6020831015156100f157805182526020820191506020810190506020830392506100cc565b6001836020036101000a0380198251168184511680821785525050505050509050019150509081526020016040518091039020805480602002602001604051908101604052809291908181526020016000905b82821015610200578382906000526020600020018054600181600116156101000203166002900480601f0160208091040260200160405190810160405280929190818152602001828054600181600116156101000203166002900480156101ec5780601f106101c1576101008083540402835291602001916101ec565b820191906000526020600020905b8154815290600101906020018083116101cf57829003601f168201915b505050505081526020019060010190610144565b505050509050919050565b6000816040518082805190602001908083835b602083101515610243578051825260208201915060208101905060208303925061021e565b6001836020036101000a03801982511681845116808217855250505050505090500191505090815260200160405180910390208290806001815401808255809150509060018203906000526020600020016000909192909190915090805190602001906102b19291906102b7565b50505050565b828054600181600116156101000203166002900490600052602060002090601f016020900481019282601f106102f857805160ff1916838001178555610326565b82800160010185558215610326579182015b8281111561032557825182559160200191906001019061030a565b5b5090506103339190610337565b5090565b61035991905b8082111561035557600081600090555060010161033d565b5090565b90565b600082601f830112151561036f57600080fd5b813561038261037d82610552565b610525565b9150808252602083016020830185838301111561039e57600080fd5b6103a98382846105ae565b50505092915050565b6000602082840312156103c457600080fd5b600082013567ffffffffffffffff8111156103de57600080fd5b6103ea8482850161035c565b91505092915050565b6000806040838503121561040657600080fd5b600083013567ffffffffffffffff81111561042057600080fd5b61042c8582860161035c565b925050602083013567ffffffffffffffff81111561044957600080fd5b6104558582860161035c565b9150509250929050565b600061046a8261058b565b808452602084019350836020820285016104838561057e565b60005b848110156104bc57838303885261049e8383516104cd565b92506104a9826105a1565b9150602088019750600181019050610486565b508196508694505050505092915050565b60006104d882610596565b8084526104ec8160208601602086016105bd565b6104f5816105f0565b602085010191505092915050565b6000602082019050818103600083015261051d818461045f565b905092915050565b6000604051905081810181811067ffffffffffffffff8211171561054857600080fd5b8060405250919050565b600067ffffffffffffffff82111561056957600080fd5b601f19601f8301169050602081019050919050565b6000602082019050919050565b600081519050919050565b600081519050919050565b6000602082019050919050565b82818337600083830152505050565b60005b838110156105db5780820151818401526020810190506105c0565b838111156105ea576000848401525b50505050565b6000601f19601f830116905091905056fea265627a7a72305820e80ea311569b321f622c559ff532a9b739fad0e96c70a183705df03d35fed2236c6578706572696d656e74616cf50037",
  "source": "pragma solidity 0.5.0;\npragma experimental ABIEncoderV2;\n\ncontract Record {\n  mapping (string => string[]) records;\n\n  function set(string memory _recordHash, string memory _area) public {\n    records[_area].push(_recordHash);\n  }\n\n  function get(string memory _area) public view returns(string[] memory) {\n    return records[_area];\n  }\n}",
  "sourcePath": "/home/guna_shekar02/Desktop/surakshit/src/contracts/Record.sol",
  "compiler": {
    "name": "solc",
    "version": "0.5.0+commit.1d4f565a.Emscripten.clang"
  },
  "schemaVersion": "3.0.2",
  "updatedAt": "2020-01-20T17:59:47.183Z",
  "devdoc": {
    "methods": {}
  },
  "userdoc": {
    "methods": {}
  }
}